{
  "_format": "hh-sol-artifact-1",
  "contractName": "Factory",
  "sourceName": "contracts/Factory.sol",
  "abi": [
    {
      "anonymous": false,
      "inputs": [
        {
          "indexed": false,
          "internalType": "contract Hackathon",
          "name": "hackathon",
          "type": "address"
        }
      ],
      "name": "HackathonCreated",
      "type": "event"
    },
    {
      "inputs": [
        {
          "internalType": "uint256",
          "name": "",
          "type": "uint256"
        }
      ],
      "name": "_hackathons",
      "outputs": [
        {
          "internalType": "address",
          "name": "",
          "type": "address"
        }
      ],
      "stateMutability": "view",
      "type": "function"
    },
    {
      "inputs": [
        {
          "internalType": "uint256",
          "name": "_max_team_size",
          "type": "uint256"
        },
        {
          "internalType": "uint256",
          "name": "_num_tracks",
          "type": "uint256"
        },
        {
          "internalType": "uint256[]",
          "name": "_prizes",
          "type": "uint256[]"
        },
        {
          "internalType": "address[]",
          "name": "_judges",
          "type": "address[]"
        },
        {
          "internalType": "uint256",
          "name": "_judgeDate",
          "type": "uint256"
        },
        {
          "internalType": "uint256",
          "name": "_endDate",
          "type": "uint256"
        }
      ],
      "name": "createHackathon",
      "outputs": [],
      "stateMutability": "payable",
      "type": "function"
    },
    {
      "inputs": [],
      "name": "getLatestHackathon",
      "outputs": [
        {
          "internalType": "address",
          "name": "",
          "type": "address"
        }
      ],
      "stateMutability": "view",
      "type": "function"
    }
  ],
  "bytecode": "0x608060405234801561001057600080fd5b50613022806100206000396000f3fe608060405260043610620000385760003560e01c806365106aa5146200003d57806369f5c6be1462000081578063e065074d14620000b1575b600080fd5b3480156200004a57600080fd5b50620000696004803603810190620000639190620004d3565b620000d1565b60405162000078919062000724565b60405180910390f35b3480156200008e57600080fd5b506200009962000111565b604051620000a8919062000724565b60405180910390f35b620000cf6004803603810190620000c99190620004ff565b62000190565b005b60008181548110620000e257600080fd5b906000526020600020016000915054906101000a900473ffffffffffffffffffffffffffffffffffffffff1681565b6000806001600080549050620001289190620008d2565b8154811062000160577f4e487b7100000000000000000000000000000000000000000000000000000000600052603260045260246000fd5b9060005260206000200160009054906101000a900473ffffffffffffffffffffffffffffffffffffffff16905090565b6000868686868686604051620001a69062000353565b620001b7969594939291906200075e565b604051809103906000f080158015620001d4573d6000803e3d6000fd5b50905060008190506000819080600181540180825580915050600190039060005260206000200160009091909190916101000a81548173ffffffffffffffffffffffffffffffffffffffff021916908373ffffffffffffffffffffffffffffffffffffffff1602179055506200024a816200028d565b7f4cd6afaf98c6ad1ed90792d1a44686a50a68b591088eaea5f850cc44891bf9eb826040516200027b919062000741565b60405180910390a15050505050505050565b6200032781604051602401620002a4919062000724565b6040516020818303038152906040527f2c2ecbc2000000000000000000000000000000000000000000000000000000007bffffffffffffffffffffffffffffffffffffffffffffffffffffffff19166020820180517bffffffffffffffffffffffffffffffffffffffffffffffffffffffff83818316178352505050506200032a565b50565b60008151905060006a636f6e736f6c652e6c6f679050602083016000808483855afa5050505050565b6125a08062000a4d83390190565b600062000378620003728462000802565b620007d9565b905080838252602082019050828560208602820111156200039857600080fd5b60005b85811015620003cc5781620003b188826200044b565b8452602084019350602083019250506001810190506200039b565b5050509392505050565b6000620003ed620003e78462000831565b620007d9565b905080838252602082019050828560208602820111156200040d57600080fd5b60005b85811015620004415781620004268882620004bc565b84526020840193506020830192505060018101905062000410565b5050509392505050565b6000813590506200045c8162000a18565b92915050565b600082601f8301126200047457600080fd5b81356200048684826020860162000361565b91505092915050565b600082601f830112620004a157600080fd5b8135620004b3848260208601620003d6565b91505092915050565b600081359050620004cd8162000a32565b92915050565b600060208284031215620004e657600080fd5b6000620004f684828501620004bc565b91505092915050565b60008060008060008060c087890312156200051957600080fd5b60006200052989828a01620004bc565b96505060206200053c89828a01620004bc565b955050604087013567ffffffffffffffff8111156200055a57600080fd5b6200056889828a016200048f565b945050606087013567ffffffffffffffff8111156200058657600080fd5b6200059489828a0162000462565b9350506080620005a789828a01620004bc565b92505060a0620005ba89828a01620004bc565b9150509295509295509295565b6000620005d58383620005fb565b60208301905092915050565b6000620005ef838362000702565b60208301905092915050565b62000606816200090d565b82525050565b62000617816200090d565b82525050565b60006200062a8262000880565b620006368185620008b0565b9350620006438362000860565b8060005b838110156200067a5781516200065e8882620005c7565b97506200066b8362000896565b92505060018101905062000647565b5085935050505092915050565b600062000694826200088b565b620006a08185620008c1565b9350620006ad8362000870565b8060005b83811015620006e4578151620006c88882620005e1565b9750620006d583620008a3565b925050600181019050620006b1565b5085935050505092915050565b620006fc816200094b565b82525050565b6200070d8162000941565b82525050565b6200071e8162000941565b82525050565b60006020820190506200073b60008301846200060c565b92915050565b6000602082019050620007586000830184620006f1565b92915050565b600060c08201905062000775600083018962000713565b62000784602083018862000713565b818103604083015262000798818762000687565b90508181036060830152620007ae81866200061d565b9050620007bf608083018562000713565b620007ce60a083018462000713565b979650505050505050565b6000620007e5620007f8565b9050620007f3828262000973565b919050565b6000604051905090565b600067ffffffffffffffff82111562000820576200081f620009d8565b5b602082029050602081019050919050565b600067ffffffffffffffff8211156200084f576200084e620009d8565b5b602082029050602081019050919050565b6000819050602082019050919050565b6000819050602082019050919050565b600081519050919050565b600081519050919050565b6000602082019050919050565b6000602082019050919050565b600082825260208201905092915050565b600082825260208201905092915050565b6000620008df8262000941565b9150620008ec8362000941565b925082821015620009025762000901620009a9565b5b828203905092915050565b60006200091a8262000921565b9050919050565b600073ffffffffffffffffffffffffffffffffffffffff82169050919050565b6000819050919050565b600062000958826200095f565b9050919050565b60006200096c8262000921565b9050919050565b6200097e8262000a07565b810181811067ffffffffffffffff82111715620009a0576200099f620009d8565b5b80604052505050565b7f4e487b7100000000000000000000000000000000000000000000000000000000600052601160045260246000fd5b7f4e487b7100000000000000000000000000000000000000000000000000000000600052604160045260246000fd5b6000601f19601f8301169050919050565b62000a23816200090d565b811462000a2f57600080fd5b50565b62000a3d8162000941565b811462000a4957600080fd5b5056fe608060405273b8dbd450ae4667be85374991244a2f51711789766000806101000a81548173ffffffffffffffffffffffffffffffffffffffff021916908373ffffffffffffffffffffffffffffffffffffffff1602179055503480156200006557600080fd5b50604051620025a0380380620025a083398181016040528101906200008b919062000489565b85600a8190555084600b8190555033600760006101000a81548173ffffffffffffffffffffffffffffffffffffffff021916908373ffffffffffffffffffffffffffffffffffffffff1602179055508360069080519060200190620000f292919062000217565b5082600890805190602001906200010b92919062000269565b5060005b8351811015620001b457600180600086848151811062000158577f4e487b7100000000000000000000000000000000000000000000000000000000600052603260045260246000fd5b602002602001015173ffffffffffffffffffffffffffffffffffffffff1673ffffffffffffffffffffffffffffffffffffffff168152602001908152602001600020819055508080620001ab906200064c565b9150506200010f565b50806002819055508160038190555033600760006101000a81548173ffffffffffffffffffffffffffffffffffffffff021916908373ffffffffffffffffffffffffffffffffffffffff16021790555042600c819055505050505050506200073d565b82805482825590600052602060002090810192821562000256579160200282015b828111156200025557825182559160200191906001019062000238565b5b509050620002659190620002f8565b5090565b828054828255906000526020600020908101928215620002e5579160200282015b82811115620002e45782518260006101000a81548173ffffffffffffffffffffffffffffffffffffffff021916908373ffffffffffffffffffffffffffffffffffffffff160217905550916020019190600101906200028a565b5b509050620002f49190620002f8565b5090565b5b8082111562000313576000816000905550600101620002f9565b5090565b60006200032e62000328846200057a565b62000551565b905080838252602082019050828560208602820111156200034e57600080fd5b60005b8581101562000382578162000367888262000401565b84526020840193506020830192505060018101905062000351565b5050509392505050565b6000620003a36200039d84620005a9565b62000551565b90508083825260208201905082856020860282011115620003c357600080fd5b60005b85811015620003f75781620003dc888262000472565b845260208401935060208301925050600181019050620003c6565b5050509392505050565b600081519050620004128162000709565b92915050565b600082601f8301126200042a57600080fd5b81516200043c84826020860162000317565b91505092915050565b600082601f8301126200045757600080fd5b8151620004698482602086016200038c565b91505092915050565b600081519050620004838162000723565b92915050565b60008060008060008060c08789031215620004a357600080fd5b6000620004b389828a0162000472565b9650506020620004c689828a0162000472565b955050604087015167ffffffffffffffff811115620004e457600080fd5b620004f289828a0162000445565b945050606087015167ffffffffffffffff8111156200051057600080fd5b6200051e89828a0162000418565b93505060806200053189828a0162000472565b92505060a06200054489828a0162000472565b9150509295509295509295565b60006200055d62000570565b90506200056b828262000616565b919050565b6000604051905090565b600067ffffffffffffffff821115620005985762000597620006c9565b5b602082029050602081019050919050565b600067ffffffffffffffff821115620005c757620005c6620006c9565b5b602082029050602081019050919050565b6000620005e582620005ec565b9050919050565b600073ffffffffffffffffffffffffffffffffffffffff82169050919050565b6000819050919050565b6200062182620006f8565b810181811067ffffffffffffffff82111715620006435762000642620006c9565b5b80604052505050565b600062000659826200060c565b91507fffffffffffffffffffffffffffffffffffffffffffffffffffffffffffffffff8214156200068f576200068e6200069a565b5b600182019050919050565b7f4e487b7100000000000000000000000000000000000000000000000000000000600052601160045260246000fd5b7f4e487b7100000000000000000000000000000000000000000000000000000000600052604160045260246000fd5b6000601f19601f8301169050919050565b6200071481620005d8565b81146200072057600080fd5b50565b6200072e816200060c565b81146200073a57600080fd5b50565b611e53806200074d6000396000f3fe608060405234801561001057600080fd5b50600436106100ea5760003560e01c8063a08d70e11161008c578063df15c37e11610066578063df15c37e14610273578063e5f9297314610291578063eccb3a4f1461029b578063f851a440146102cb576100ea565b8063a08d70e1146101f7578063b06b036814610227578063b384abef14610257576100ea565b806365008cd6116100c857806365008cd61461016d57806366bed2101461018b5780639ab4753d146101a95780639fc25a27146101d9576100ea565b80633ed2b77a146100ef57806340ba2957146101215780635d3f4de514610151575b600080fd5b61010960048036038101906101049190611900565b6102e9565b60405161011893929190611b00565b60405180910390f35b61013b60048036038101906101369190611847565b610323565b6040516101489190611aa8565b60405180910390f35b61016b600480360381019061016691906118ac565b610343565b005b610175610565565b6040516101829190611ae5565b60405180910390f35b61019361056b565b6040516101a09190611ae5565b60405180910390f35b6101c360048036038101906101be9190611870565b610571565b6040516101d09190611aa8565b60405180910390f35b6101e16105b4565b6040516101ee9190611ae5565b60405180910390f35b610211600480360381019061020c9190611847565b6105ba565b60405161021e9190611aa8565b60405180910390f35b610241600480360381019061023c9190611900565b61066e565b60405161024e9190611a72565b60405180910390f35b610271600480360381019061026c9190611952565b6106ad565b005b61027b610aa8565b6040516102889190611a8d565b60405180910390f35b610299610baf565b005b6102b560048036038101906102b09190611900565b611131565b6040516102c29190611ae5565b60405180910390f35b6102d3611155565b6040516102e09190611a72565b60405180910390f35b600981815481106102f957600080fd5b90600052602060002090600502016000915090508060000154908060030154908060040154905083565b60046020528060005260406000206000915054906101000a900460ff1681565b600a548251111561035357600080fd5b8151811061036057600080fd5b60096040518060a00160405280838152602001848152602001600b5467ffffffffffffffff8111156103bb577f4e487b7100000000000000000000000000000000000000000000000000000000600052604160045260246000fd5b6040519080825280602002602001820160405280156103e95781602001602082028036833780820191505090505b508152602001600081526020016000815250908060018154018082558091505060019003906000526020600020906005020160009091909190915060008201518160000155602082015181600101908051906020019061044a929190611647565b5060408201518160020190805190602001906104679291906116d1565b506060820151816003015560808201518160040155505060005b8251811015610522576002600160008584815181106104c9577f4e487b7100000000000000000000000000000000000000000000000000000000600052603260045260246000fd5b602002602001015173ffffffffffffffffffffffffffffffffffffffff1673ffffffffffffffffffffffffffffffffffffffff16815260200190815260200160002081905550808061051a90611cc0565b915050610481565b506105616040518060400160405280601981526020017f7465616d206164646564207375636365737366756c6c7921210000000000000081525061117b565b5050565b600c5481565b600a5481565b6005602052816000526040600020818154811061058d57600080fd5b9060005260206000209060209182820401919006915091509054906101000a900460ff1681565b600b5481565b60008060008054906101000a900473ffffffffffffffffffffffffffffffffffffffff1673ffffffffffffffffffffffffffffffffffffffff166370a08231846040518263ffffffff1660e01b81526004016106169190611a72565b60206040518083038186803b15801561062e57600080fd5b505afa158015610642573d6000803e3d6000fd5b505050506040513d601f19601f820116820180604052508101906106669190611929565b119050919050565b6008818154811061067e57600080fd5b906000526020600020016000915054906101000a900473ffffffffffffffffffffffffffffffffffffffff1681565b60098054905082106106be57600080fd5b6000600160003373ffffffffffffffffffffffffffffffffffffffff1673ffffffffffffffffffffffffffffffffffffffff1681526020019081526020016000205490506001811415610910576000821015801561071c5750600382105b61072557600080fd5b600560003373ffffffffffffffffffffffffffffffffffffffff1673ffffffffffffffffffffffffffffffffffffffff168152602001908152602001600020828154811061079c577f4e487b7100000000000000000000000000000000000000000000000000000000600052603260045260246000fd5b90600052602060002090602091828204019190069054906101000a900460ff16156107c657600080fd5b6001600560003373ffffffffffffffffffffffffffffffffffffffff1673ffffffffffffffffffffffffffffffffffffffff168152602001908152602001600020838154811061083f577f4e487b7100000000000000000000000000000000000000000000000000000000600052603260045260246000fd5b90600052602060002090602091828204019190066101000a81548160ff021916908315150217905550600983815481106108a2577f4e487b7100000000000000000000000000000000000000000000000000000000600052603260045260246000fd5b906000526020600020906005020160020182815481106108eb577f4e487b7100000000000000000000000000000000000000000000000000000000600052603260045260246000fd5b90600052602060002001600081548092919061090690611cc0565b9190505550610aa3565b600460003373ffffffffffffffffffffffffffffffffffffffff1673ffffffffffffffffffffffffffffffffffffffff16815260200190815260200160002060009054906101000a900460ff161561096757600080fd5b6001600460003373ffffffffffffffffffffffffffffffffffffffff1673ffffffffffffffffffffffffffffffffffffffff16815260200190815260200160002060006101000a81548160ff0219169083151502179055506002811415610a2e5760098381548110610a02577f4e487b7100000000000000000000000000000000000000000000000000000000600052603260045260246000fd5b90600052602060002090600502016003016000815480929190610a2490611cc0565b9190505550610aa2565b610a37336105ba565b610a4057600080fd5b60098381548110610a7a577f4e487b7100000000000000000000000000000000000000000000000000000000600052603260045260246000fd5b90600052602060002090600502016004016000815480929190610a9c90611cc0565b91905055505b5b505050565b610ab061171e565b6040518060a00160405280600d600081548110610af6577f4e487b7100000000000000000000000000000000000000000000000000000000600052603260045260246000fd5b90600052602060002001548152602001600d600181548110610b41577f4e487b7100000000000000000000000000000000000000000000000000000000600052603260045260246000fd5b90600052602060002001548152602001600d600281548110610b8c577f4e487b7100000000000000000000000000000000000000000000000000000000600052603260045260246000fd5b90600052602060002001548152602001600e548152602001600f54815250905090565b6002544211610bbd57600080fd5b600b5467ffffffffffffffff811115610bff577f4e487b7100000000000000000000000000000000000000000000000000000000600052604160045260246000fd5b604051908082528060200260200182016040528015610c2d5781602001602082028036833780820191505090505b50600d9080519060200190610c439291906116d1565b5060005b600b54811015610e2557600060098054905067ffffffffffffffff811115610c98577f4e487b7100000000000000000000000000000000000000000000000000000000600052604160045260246000fd5b604051908082528060200260200182016040528015610cc65781602001602082028036833780820191505090505b50905060005b600980549050811015610dbf5760098181548110610d13577f4e487b7100000000000000000000000000000000000000000000000000000000600052603260045260246000fd5b90600052602060002090600502016002018381548110610d5c577f4e487b7100000000000000000000000000000000000000000000000000000000600052603260045260246000fd5b9060005260206000200154828281518110610da0577f4e487b7100000000000000000000000000000000000000000000000000000000600052603260045260246000fd5b6020026020010181815250508080610db790611cc0565b915050610ccc565b50610dc981611214565b600d8381548110610e03577f4e487b7100000000000000000000000000000000000000000000000000000000600052603260045260246000fd5b9060005260206000200181905550508080610e1d90611cc0565b915050610c47565b5060005b600b54811015610ed857610ec5600d8281548110610e70577f4e487b7100000000000000000000000000000000000000000000000000000000600052603260045260246000fd5b906000526020600020015460068381548110610eb5577f4e487b7100000000000000000000000000000000000000000000000000000000600052603260045260246000fd5b906000526020600020015461132d565b8080610ed090611cc0565b915050610e29565b50600060098054905067ffffffffffffffff811115610f20577f4e487b7100000000000000000000000000000000000000000000000000000000600052604160045260246000fd5b604051908082528060200260200182016040528015610f4e5781602001602082028036833780820191505090505b509050600060098054905067ffffffffffffffff811115610f98577f4e487b7100000000000000000000000000000000000000000000000000000000600052604160045260246000fd5b604051908082528060200260200182016040528015610fc65781602001602082028036833780820191505090505b50905060005b60098054905081101561110e5760098181548110611013577f4e487b7100000000000000000000000000000000000000000000000000000000600052603260045260246000fd5b90600052602060002090600502016003015483828151811061105e577f4e487b7100000000000000000000000000000000000000000000000000000000600052603260045260246000fd5b602002602001018181525050600981815481106110a4577f4e487b7100000000000000000000000000000000000000000000000000000000600052603260045260246000fd5b9060005260206000209060050201600401548282815181106110ef577f4e487b7100000000000000000000000000000000000000000000000000000000600052603260045260246000fd5b602002602001018181525050808061110690611cc0565b915050610fcc565b5061111882611214565b600e8190555061112781611214565b600f819055505050565b6006818154811061114157600080fd5b906000526020600020016000915090505481565b600760009054906101000a900473ffffffffffffffffffffffffffffffffffffffff1681565b6112118160405160240161118f9190611ac3565b6040516020818303038152906040527f41304fac000000000000000000000000000000000000000000000000000000007bffffffffffffffffffffffffffffffffffffffffffffffffffffffff19166020820180517bffffffffffffffffffffffffffffffffffffffffffffffffffffffff838183161783525050505061161e565b50565b60008082519050600181101561122957600080fd5b600083600081518110611265577f4e487b7100000000000000000000000000000000000000000000000000000000600052603260045260246000fd5b60200260200101519050600080600190505b8381101561132157828682815181106112b9577f4e487b7100000000000000000000000000000000000000000000000000000000600052603260045260246000fd5b6020026020010151111561130e57858181518110611300577f4e487b7100000000000000000000000000000000000000000000000000000000600052603260045260246000fd5b602002602001015192508091505b808061131990611cc0565b915050611277565b50809350505050919050565b600980549050821061133e57600080fd5b60006009838154811061137a577f4e487b7100000000000000000000000000000000000000000000000000000000600052603260045260246000fd5b90600052602060002090600502016001018054905090506000818361139f9190611bd1565b905060005b828110156114b357600985815481106113e6577f4e487b7100000000000000000000000000000000000000000000000000000000600052603260045260246000fd5b9060005260206000209060050201600101818154811061142f577f4e487b7100000000000000000000000000000000000000000000000000000000600052603260045260246000fd5b9060005260206000200160009054906101000a900473ffffffffffffffffffffffffffffffffffffffff1673ffffffffffffffffffffffffffffffffffffffff166108fc839081150290604051600060405180830381858888f1935050505015801561149f573d6000803e3d6000fd5b5080806114ab90611cc0565b9150506113a4565b50600082846114c29190611d09565b1461161857600060098581548110611503577f4e487b7100000000000000000000000000000000000000000000000000000000600052603260045260246000fd5b906000526020600020906005020160000154905060098581548110611551577f4e487b7100000000000000000000000000000000000000000000000000000000600052603260045260246000fd5b9060005260206000209060050201600101818154811061159a577f4e487b7100000000000000000000000000000000000000000000000000000000600052603260045260246000fd5b9060005260206000200160009054906101000a900473ffffffffffffffffffffffffffffffffffffffff1673ffffffffffffffffffffffffffffffffffffffff166108fc84866115ea9190611d09565b9081150290604051600060405180830381858888f19350505050158015611615573d6000803e3d6000fd5b50505b50505050565b60008151905060006a636f6e736f6c652e6c6f679050602083016000808483855afa5050505050565b8280548282559060005260206000209081019282156116c0579160200282015b828111156116bf5782518260006101000a81548173ffffffffffffffffffffffffffffffffffffffff021916908373ffffffffffffffffffffffffffffffffffffffff16021790555091602001919060010190611667565b5b5090506116cd9190611740565b5090565b82805482825590600052602060002090810192821561170d579160200282015b8281111561170c5782518255916020019190600101906116f1565b5b50905061171a9190611740565b5090565b6040518060a00160405280600590602082028036833780820191505090505090565b5b80821115611759576000816000905550600101611741565b5090565b600061177061176b84611b5c565b611b37565b9050808382526020820190508285602086028201111561178f57600080fd5b60005b858110156117bf57816117a588826117de565b845260208401935060208301925050600181019050611792565b5050509392505050565b6000813590506117d881611dd8565b92915050565b6000813590506117ed81611def565b92915050565b600082601f83011261180457600080fd5b813561181484826020860161175d565b91505092915050565b60008135905061182c81611e06565b92915050565b60008151905061184181611e06565b92915050565b60006020828403121561185957600080fd5b6000611867848285016117c9565b91505092915050565b6000806040838503121561188357600080fd5b6000611891858286016117c9565b92505060206118a28582860161181d565b9150509250929050565b600080604083850312156118bf57600080fd5b600083013567ffffffffffffffff8111156118d957600080fd5b6118e5858286016117f3565b92505060206118f68582860161181d565b9150509250929050565b60006020828403121561191257600080fd5b60006119208482850161181d565b91505092915050565b60006020828403121561193b57600080fd5b600061194984828501611832565b91505092915050565b6000806040838503121561196557600080fd5b60006119738582860161181d565b92505060206119848582860161181d565b9150509250929050565b600061199a8383611a54565b60208301905092915050565b6119af81611c02565b82525050565b6119be81611b92565b6119c88184611bb5565b92506119d382611b88565b8060005b83811015611a045781516119eb878261198e565b96506119f683611ba8565b9250506001810190506119d7565b505050505050565b611a1581611c26565b82525050565b6000611a2682611b9d565b611a308185611bc0565b9350611a40818560208601611c5c565b611a4981611dc7565b840191505092915050565b611a5d81611c52565b82525050565b611a6c81611c52565b82525050565b6000602082019050611a8760008301846119a6565b92915050565b600060a082019050611aa260008301846119b5565b92915050565b6000602082019050611abd6000830184611a0c565b92915050565b60006020820190508181036000830152611add8184611a1b565b905092915050565b6000602082019050611afa6000830184611a63565b92915050565b6000606082019050611b156000830186611a63565b611b226020830185611a63565b611b2f6040830184611a63565b949350505050565b6000611b41611b52565b9050611b4d8282611c8f565b919050565b6000604051905090565b600067ffffffffffffffff821115611b7757611b76611d98565b5b602082029050602081019050919050565b6000819050919050565b600060059050919050565b600081519050919050565b6000602082019050919050565b600081905092915050565b600082825260208201905092915050565b6000611bdc82611c52565b9150611be783611c52565b925082611bf757611bf6611d69565b5b828204905092915050565b6000611c0d82611c32565b9050919050565b6000611c1f82611c32565b9050919050565b60008115159050919050565b600073ffffffffffffffffffffffffffffffffffffffff82169050919050565b6000819050919050565b60005b83811015611c7a578082015181840152602081019050611c5f565b83811115611c89576000848401525b50505050565b611c9882611dc7565b810181811067ffffffffffffffff82111715611cb757611cb6611d98565b5b80604052505050565b6000611ccb82611c52565b91507fffffffffffffffffffffffffffffffffffffffffffffffffffffffffffffffff821415611cfe57611cfd611d3a565b5b600182019050919050565b6000611d1482611c52565b9150611d1f83611c52565b925082611d2f57611d2e611d69565b5b828206905092915050565b7f4e487b7100000000000000000000000000000000000000000000000000000000600052601160045260246000fd5b7f4e487b7100000000000000000000000000000000000000000000000000000000600052601260045260246000fd5b7f4e487b7100000000000000000000000000000000000000000000000000000000600052604160045260246000fd5b6000601f19601f8301169050919050565b611de181611c02565b8114611dec57600080fd5b50565b611df881611c14565b8114611e0357600080fd5b50565b611e0f81611c52565b8114611e1a57600080fd5b5056fea26469706673582212207d90f62690001c2514246f262d9afa21e21745dc8cd3a80c7a70e507152ef1fa64736f6c63430008040033a2646970667358221220c1751b9232c2fc31382872ee9bbdbb3e1bfd9aa73c97e223dc5ada925d60ca3a64736f6c63430008040033",
  "linkReferences": {},
  "deployedLinkReferences": {}
}