{
  "_format": "hh-sol-artifact-1",
  "contractName": "NewHackathon",
  "sourceName": "contracts/NewHackathon.sol",
  "abi": [
    {
      "inputs": [
        {
          "internalType": "uint8",
          "name": "_max_team_size",
          "type": "uint8"
        },
        {
          "internalType": "uint8",
          "name": "_num_tracks",
          "type": "uint8"
        },
        {
          "internalType": "uint256[]",
          "name": "_prizes",
          "type": "uint256[]"
        },
        {
          "internalType": "address[]",
          "name": "_judges",
          "type": "address[]"
        },
        {
          "internalType": "uint256",
          "name": "_judgeDate",
          "type": "uint256"
        },
        {
          "internalType": "uint256",
          "name": "_endDate",
          "type": "uint256"
        }
      ],
      "stateMutability": "payable",
      "type": "constructor"
    },
    {
      "stateMutability": "payable",
      "type": "fallback"
    },
    {
      "inputs": [
        {
          "internalType": "address payable[]",
          "name": "_taddress",
          "type": "address[]"
        }
      ],
      "name": "addTeam",
      "outputs": [],
      "stateMutability": "nonpayable",
      "type": "function"
    },
    {
      "inputs": [],
      "name": "admin",
      "outputs": [
        {
          "internalType": "address",
          "name": "",
          "type": "address"
        }
      ],
      "stateMutability": "view",
      "type": "function"
    },
    {
      "inputs": [],
      "name": "conclude",
      "outputs": [],
      "stateMutability": "payable",
      "type": "function"
    },
    {
      "inputs": [],
      "name": "creation_time",
      "outputs": [
        {
          "internalType": "uint256",
          "name": "",
          "type": "uint256"
        }
      ],
      "stateMutability": "view",
      "type": "function"
    },
    {
      "inputs": [
        {
          "internalType": "address",
          "name": "_owner",
          "type": "address"
        }
      ],
      "name": "doesHoldNFT",
      "outputs": [
        {
          "internalType": "bool",
          "name": "",
          "type": "bool"
        }
      ],
      "stateMutability": "view",
      "type": "function"
    },
    {
      "inputs": [],
      "name": "getWinners",
      "outputs": [
        {
          "internalType": "address",
          "name": "",
          "type": "address"
        },
        {
          "internalType": "address",
          "name": "",
          "type": "address"
        },
        {
          "internalType": "address[]",
          "name": "winners",
          "type": "address[]"
        }
      ],
      "stateMutability": "view",
      "type": "function"
    },
    {
      "inputs": [
        {
          "internalType": "address",
          "name": "",
          "type": "address"
        },
        {
          "internalType": "uint256",
          "name": "",
          "type": "uint256"
        }
      ],
      "name": "hasVotedJudges",
      "outputs": [
        {
          "internalType": "bool",
          "name": "",
          "type": "bool"
        }
      ],
      "stateMutability": "view",
      "type": "function"
    },
    {
      "inputs": [
        {
          "internalType": "address",
          "name": "",
          "type": "address"
        }
      ],
      "name": "hasVotedOthers",
      "outputs": [
        {
          "internalType": "bool",
          "name": "",
          "type": "bool"
        }
      ],
      "stateMutability": "view",
      "type": "function"
    },
    {
      "inputs": [
        {
          "internalType": "uint256",
          "name": "",
          "type": "uint256"
        }
      ],
      "name": "judges",
      "outputs": [
        {
          "internalType": "address",
          "name": "",
          "type": "address"
        }
      ],
      "stateMutability": "view",
      "type": "function"
    },
    {
      "inputs": [],
      "name": "max_team_size",
      "outputs": [
        {
          "internalType": "uint8",
          "name": "",
          "type": "uint8"
        }
      ],
      "stateMutability": "view",
      "type": "function"
    },
    {
      "inputs": [],
      "name": "num_tracks",
      "outputs": [
        {
          "internalType": "uint8",
          "name": "",
          "type": "uint8"
        }
      ],
      "stateMutability": "view",
      "type": "function"
    },
    {
      "inputs": [
        {
          "internalType": "uint256",
          "name": "",
          "type": "uint256"
        }
      ],
      "name": "prizes",
      "outputs": [
        {
          "internalType": "uint256",
          "name": "",
          "type": "uint256"
        }
      ],
      "stateMutability": "view",
      "type": "function"
    },
    {
      "inputs": [
        {
          "internalType": "address",
          "name": "team_idx",
          "type": "address"
        },
        {
          "internalType": "uint256",
          "name": "track_idx",
          "type": "uint256"
        }
      ],
      "name": "vote",
      "outputs": [],
      "stateMutability": "nonpayable",
      "type": "function"
    },
    {
      "stateMutability": "payable",
      "type": "receive"
    }
  ],
  "bytecode": "0x608060405273b8dbd450ae4667be85374991244a2f51711789766000806101000a81548173ffffffffffffffffffffffffffffffffffffffff021916908373ffffffffffffffffffffffffffffffffffffffff160217905550604051620031093803806200310983398181016040528101906200007d919062000510565b85600360006101000a81548160ff021916908360ff16021790555084600360016101000a81548160ff021916908360ff16021790555033600160006101000a81548173ffffffffffffffffffffffffffffffffffffffff021916908373ffffffffffffffffffffffffffffffffffffffff16021790555083600a90805190602001906200010c92919062000287565b50826002908051906020019062000125929190620002d9565b5060005b8351811015620001e3576001600f600086848151811062000173577f4e487b7100000000000000000000000000000000000000000000000000000000600052603260045260246000fd5b602002602001015173ffffffffffffffffffffffffffffffffffffffff1673ffffffffffffffffffffffffffffffffffffffff16815260200190815260200160002060006101000a81548160ff021916908360ff1602179055508080620001da90620006e0565b91505062000129565b50806005819055508160068190555033600160006101000a81548173ffffffffffffffffffffffffffffffffffffffff021916908373ffffffffffffffffffffffffffffffffffffffff1602179055504260048190555033600160006101000a81548173ffffffffffffffffffffffffffffffffffffffff021916908373ffffffffffffffffffffffffffffffffffffffff160217905550505050505050620007eb565b828054828255906000526020600020908101928215620002c6579160200282015b82811115620002c5578251825591602001919060010190620002a8565b5b509050620002d5919062000368565b5090565b82805482825590600052602060002090810192821562000355579160200282015b82811115620003545782518260006101000a81548173ffffffffffffffffffffffffffffffffffffffff021916908373ffffffffffffffffffffffffffffffffffffffff16021790555091602001919060010190620002fa565b5b50905062000364919062000368565b5090565b5b808211156200038357600081600090555060010162000369565b5090565b60006200039e620003988462000601565b620005d8565b90508083825260208201905082856020860282011115620003be57600080fd5b60005b85811015620003f25781620003d7888262000471565b845260208401935060208301925050600181019050620003c1565b5050509392505050565b6000620004136200040d8462000630565b620005d8565b905080838252602082019050828560208602820111156200043357600080fd5b60005b858110156200046757816200044c8882620004e2565b84526020840193506020830192505060018101905062000436565b5050509392505050565b60008151905062000482816200079d565b92915050565b600082601f8301126200049a57600080fd5b8151620004ac84826020860162000387565b91505092915050565b600082601f830112620004c757600080fd5b8151620004d9848260208601620003fc565b91505092915050565b600081519050620004f381620007b7565b92915050565b6000815190506200050a81620007d1565b92915050565b60008060008060008060c087890312156200052a57600080fd5b60006200053a89828a01620004f9565b96505060206200054d89828a01620004f9565b955050604087015167ffffffffffffffff8111156200056b57600080fd5b6200057989828a01620004b5565b945050606087015167ffffffffffffffff8111156200059757600080fd5b620005a589828a0162000488565b9350506080620005b889828a01620004e2565b92505060a0620005cb89828a01620004e2565b9150509295509295509295565b6000620005e4620005f7565b9050620005f28282620006aa565b919050565b6000604051905090565b600067ffffffffffffffff8211156200061f576200061e6200075d565b5b602082029050602081019050919050565b600067ffffffffffffffff8211156200064e576200064d6200075d565b5b602082029050602081019050919050565b60006200066c8262000673565b9050919050565b600073ffffffffffffffffffffffffffffffffffffffff82169050919050565b6000819050919050565b600060ff82169050919050565b620006b5826200078c565b810181811067ffffffffffffffff82111715620006d757620006d66200075d565b5b80604052505050565b6000620006ed8262000693565b91507fffffffffffffffffffffffffffffffffffffffffffffffffffffffffffffffff8214156200072357620007226200072e565b5b600182019050919050565b7f4e487b7100000000000000000000000000000000000000000000000000000000600052601160045260246000fd5b7f4e487b7100000000000000000000000000000000000000000000000000000000600052604160045260246000fd5b6000601f19601f8301169050919050565b620007a8816200065f565b8114620007b457600080fd5b50565b620007c28162000693565b8114620007ce57600080fd5b50565b620007dc816200069d565b8114620007e857600080fd5b50565b61290e80620007fb6000396000f3fe6080604052600436106100c65760003560e01c8063a08d70e11161007f578063df15c37e11610059578063df15c37e14610296578063e5f92973146102c3578063eccb3a4f146102cd578063f851a4401461030a576100cd565b8063a08d70e1146101f3578063b06b036814610230578063b1d8c61d1461026d576100cd565b806340ba2957146100cf5780635f74bbde1461010c57806365008cd61461013557806366bed210146101605780639ab4753d1461018b5780639fc25a27146101c8576100cd565b366100cd57005b005b3480156100db57600080fd5b506100f660048036038101906100f19190611f3f565b610335565b60405161010391906122c4565b60405180910390f35b34801561011857600080fd5b50610133600480360381019061012e9190611f68565b610355565b005b34801561014157600080fd5b5061014a610926565b60405161015791906123ff565b60405180910390f35b34801561016c57600080fd5b5061017561092c565b604051610182919061241a565b60405180910390f35b34801561019757600080fd5b506101b260048036038101906101ad9190611f68565b61093f565b6040516101bf91906122c4565b60405180910390f35b3480156101d457600080fd5b506101dd610982565b6040516101ea919061241a565b60405180910390f35b3480156101ff57600080fd5b5061021a60048036038101906102159190611f3f565b610995565b60405161022791906122c4565b60405180910390f35b34801561023c57600080fd5b5061025760048036038101906102529190611fe5565b610a49565b604051610264919061226b565b60405180910390f35b34801561027957600080fd5b50610294600480360381019061028f9190611fa4565b610a88565b005b3480156102a257600080fd5b506102ab610d6a565b6040516102ba93929190612286565b60405180910390f35b6102cb610e4a565b005b3480156102d957600080fd5b506102f460048036038101906102ef9190611fe5565b6117a5565b60405161030191906123ff565b60405180910390f35b34801561031657600080fd5b5061031f6117c9565b60405161032c919061226b565b60405180910390f35b600d6020528060005260406000206000915054906101000a900460ff1681565b60065442118015610367575060055442105b6103a6576040517f08c379a000000000000000000000000000000000000000000000000000000000815260040161039d9061239f565b60405180910390fd5b6000600b60008473ffffffffffffffffffffffffffffffffffffffff1673ffffffffffffffffffffffffffffffffffffffff16815260200190815260200160002060000180549050141561042f576040517f08c379a0000000000000000000000000000000000000000000000000000000008152600401610426906123bf565b60405180910390fd5b6000600f60003373ffffffffffffffffffffffffffffffffffffffff1673ffffffffffffffffffffffffffffffffffffffff16815260200190815260200160002060009054906101000a900460ff16905060018160ff16141561073357600082101580156104ae5750600360019054906101000a900460ff1660ff1682105b6104ed576040517f08c379a00000000000000000000000000000000000000000000000000000000081526004016104e49061237f565b60405180910390fd5b600e60003373ffffffffffffffffffffffffffffffffffffffff1673ffffffffffffffffffffffffffffffffffffffff1681526020019081526020016000208281548110610564577f4e487b7100000000000000000000000000000000000000000000000000000000600052603260045260246000fd5b90600052602060002090602091828204019190069054906101000a900460ff16156105c4576040517f08c379a00000000000000000000000000000000000000000000000000000000081526004016105bb9061231f565b60405180910390fd5b6001600e60003373ffffffffffffffffffffffffffffffffffffffff1673ffffffffffffffffffffffffffffffffffffffff168152602001908152602001600020838154811061063d577f4e487b7100000000000000000000000000000000000000000000000000000000600052603260045260246000fd5b90600052602060002090602091828204019190066101000a81548160ff021916908315150217905550600b60008473ffffffffffffffffffffffffffffffffffffffff1673ffffffffffffffffffffffffffffffffffffffff16815260200190815260200160002060010182815481106106e0577f4e487b7100000000000000000000000000000000000000000000000000000000600052603260045260246000fd5b906000526020600020906010918282040191900660020281819054906101000a900461ffff1680929190610713906125b2565b91906101000a81548161ffff021916908361ffff16021790555050610921565b600d60003373ffffffffffffffffffffffffffffffffffffffff1673ffffffffffffffffffffffffffffffffffffffff16815260200190815260200160002060009054906101000a900460ff16156107c0576040517f08c379a00000000000000000000000000000000000000000000000000000000081526004016107b79061231f565b60405180910390fd5b6001600d60003373ffffffffffffffffffffffffffffffffffffffff1673ffffffffffffffffffffffffffffffffffffffff16815260200190815260200160002060006101000a81548160ff02191690831515021790555060028160ff1614156108a457600b60008473ffffffffffffffffffffffffffffffffffffffff1673ffffffffffffffffffffffffffffffffffffffff168152602001908152602001600020600201600081819054906101000a900461ffff1680929190610884906125b2565b91906101000a81548161ffff021916908361ffff16021790555050610920565b600b60008473ffffffffffffffffffffffffffffffffffffffff1673ffffffffffffffffffffffffffffffffffffffff168152602001908152602001600020600201600281819054906101000a900461ffff1680929190610904906125b2565b91906101000a81548161ffff021916908361ffff160217905550505b5b505050565b60045481565b600360009054906101000a900460ff1681565b600e602052816000526040600020818154811061095b57600080fd5b9060005260206000209060209182820401919006915091509054906101000a900460ff1681565b600360019054906101000a900460ff1681565b60008060008054906101000a900473ffffffffffffffffffffffffffffffffffffffff1673ffffffffffffffffffffffffffffffffffffffff166370a08231846040518263ffffffff1660e01b81526004016109f1919061226b565b60206040518083038186803b158015610a0957600080fd5b505afa158015610a1d573d6000803e3d6000fd5b505050506040513d601f19601f82011682018060405250810190610a41919061200e565b119050919050565b60028181548110610a5957600080fd5b906000526020600020016000915054906101000a900473ffffffffffffffffffffffffffffffffffffffff1681565b600360009054906101000a900460ff1660ff1681511115610ade576040517f08c379a0000000000000000000000000000000000000000000000000000000008152600401610ad5906123df565b60405180910390fd5b6040518060800160405280828152602001600360019054906101000a900460ff1660ff1667ffffffffffffffff811115610b41577f4e487b7100000000000000000000000000000000000000000000000000000000600052604160045260246000fd5b604051908082528060200260200182016040528015610b6f5781602001602082028036833780820191505090505b508152602001600061ffff168152602001600061ffff16815250600b60003373ffffffffffffffffffffffffffffffffffffffff1673ffffffffffffffffffffffffffffffffffffffff1681526020019081526020016000206000820151816000019080519060200190610be4929190611c7a565b506020820151816001019080519060200190610c01929190611d04565b5060408201518160020160006101000a81548161ffff021916908361ffff16021790555060608201518160020160026101000a81548161ffff021916908361ffff16021790555090505060005b8151811015610d03576002600f6000848481518110610c96577f4e487b7100000000000000000000000000000000000000000000000000000000600052603260045260246000fd5b602002602001015173ffffffffffffffffffffffffffffffffffffffff1673ffffffffffffffffffffffffffffffffffffffff16815260200190815260200160002060006101000a81548160ff021916908360ff1602179055508080610cfb906125dd565b915050610c4e565b50600c339080600181540180825580915050600190039060005260206000200160009091909190916101000a81548173ffffffffffffffffffffffffffffffffffffffff021916908373ffffffffffffffffffffffffffffffffffffffff16021790555050565b6000806060600860009054906101000a900473ffffffffffffffffffffffffffffffffffffffff16600960009054906101000a900473ffffffffffffffffffffffffffffffffffffffff16600780805480602002602001604051908101604052809291908181526020018280548015610e3857602002820191906000526020600020905b8160009054906101000a900473ffffffffffffffffffffffffffffffffffffffff1673ffffffffffffffffffffffffffffffffffffffff1681526020019060010190808311610dee575b50505050509050925092509250909192565b6005544211610e8e576040517f08c379a0000000000000000000000000000000000000000000000000000000008152600401610e859061235f565b60405180910390fd5b600360019054906101000a900460ff1660ff1667ffffffffffffffff811115610ee0577f4e487b7100000000000000000000000000000000000000000000000000000000600052604160045260246000fd5b604051908082528060200260200182016040528015610f0e5781602001602082028036833780820191505090505b5060079080519060200190610f24929190611dae565b5060005b600360019054906101000a900460ff1660ff168160ff16101561123f576000600c8054905067ffffffffffffffff811115610f8c577f4e487b7100000000000000000000000000000000000000000000000000000000600052604160045260246000fd5b604051908082528060200260200182016040528015610fba5781602001602082028036833780820191505090505b50905060005b600c8054905081101561113457600b6000600c838154811061100b577f4e487b7100000000000000000000000000000000000000000000000000000000600052603260045260246000fd5b9060005260206000200160009054906101000a900473ffffffffffffffffffffffffffffffffffffffff1673ffffffffffffffffffffffffffffffffffffffff1673ffffffffffffffffffffffffffffffffffffffff1681526020019081526020016000206001018360ff16815481106110ae577f4e487b7100000000000000000000000000000000000000000000000000000000600052603260045260246000fd5b90600052602060002090601091828204019190066002029054906101000a900461ffff1682828151811061110b577f4e487b7100000000000000000000000000000000000000000000000000000000600052603260045260246000fd5b602002602001019061ffff16908161ffff1681525050808061112c906125dd565b915050610fc0565b50600c611140826117ef565b61ffff168154811061117b577f4e487b7100000000000000000000000000000000000000000000000000000000600052603260045260246000fd5b9060005260206000200160009054906101000a900473ffffffffffffffffffffffffffffffffffffffff1660078360ff16815481106111e3577f4e487b7100000000000000000000000000000000000000000000000000000000600052603260045260246000fd5b9060005260206000200160006101000a81548173ffffffffffffffffffffffffffffffffffffffff021916908373ffffffffffffffffffffffffffffffffffffffff16021790555050808061123790612626565b915050610f28565b5060005b600360019054906101000a900460ff1660ff168110156113225761130f6007828154811061129a577f4e487b7100000000000000000000000000000000000000000000000000000000600052603260045260246000fd5b9060005260206000200160009054906101000a900473ffffffffffffffffffffffffffffffffffffffff16600a83815481106112ff577f4e487b7100000000000000000000000000000000000000000000000000000000600052603260045260246000fd5b906000526020600020015461195a565b808061131a906125dd565b915050611243565b506000600c8054905067ffffffffffffffff81111561136a577f4e487b7100000000000000000000000000000000000000000000000000000000600052604160045260246000fd5b6040519080825280602002602001820160405280156113985781602001602082028036833780820191505090505b5090506000600c8054905067ffffffffffffffff8111156113e2577f4e487b7100000000000000000000000000000000000000000000000000000000600052604160045260246000fd5b6040519080825280602002602001820160405280156114105781602001602082028036833780820191505090505b50905060005b600c8054905081101561163e57600b6000600c8381548110611461577f4e487b7100000000000000000000000000000000000000000000000000000000600052603260045260246000fd5b9060005260206000200160009054906101000a900473ffffffffffffffffffffffffffffffffffffffff1673ffffffffffffffffffffffffffffffffffffffff1673ffffffffffffffffffffffffffffffffffffffff16815260200190815260200160002060020160009054906101000a900461ffff16838281518110611511577f4e487b7100000000000000000000000000000000000000000000000000000000600052603260045260246000fd5b602002602001019061ffff16908161ffff1681525050600b6000600c8381548110611565577f4e487b7100000000000000000000000000000000000000000000000000000000600052603260045260246000fd5b9060005260206000200160009054906101000a900473ffffffffffffffffffffffffffffffffffffffff1673ffffffffffffffffffffffffffffffffffffffff1673ffffffffffffffffffffffffffffffffffffffff16815260200190815260200160002060020160029054906101000a900461ffff16828281518110611615577f4e487b7100000000000000000000000000000000000000000000000000000000600052603260045260246000fd5b602002602001019061ffff16908161ffff16815250508080611636906125dd565b915050611416565b50600c61164a836117ef565b61ffff1681548110611685577f4e487b7100000000000000000000000000000000000000000000000000000000600052603260045260246000fd5b9060005260206000200160009054906101000a900473ffffffffffffffffffffffffffffffffffffffff16600860006101000a81548173ffffffffffffffffffffffffffffffffffffffff021916908373ffffffffffffffffffffffffffffffffffffffff160217905550600c6116fb826117ef565b61ffff1681548110611736577f4e487b7100000000000000000000000000000000000000000000000000000000600052603260045260246000fd5b9060005260206000200160009054906101000a900473ffffffffffffffffffffffffffffffffffffffff16600960006101000a81548173ffffffffffffffffffffffffffffffffffffffff021916908373ffffffffffffffffffffffffffffffffffffffff1602179055505050565b600a81815481106117b557600080fd5b906000526020600020016000915090505481565b600160009054906101000a900473ffffffffffffffffffffffffffffffffffffffff1681565b6000808251905060018161ffff16101561183e576040517f08c379a0000000000000000000000000000000000000000000000000000000008152600401611835906122df565b60405180910390fd5b60008360008151811061187a577f4e487b7100000000000000000000000000000000000000000000000000000000600052603260045260246000fd5b60200260200101519050600080600190505b8361ffff168161ffff16101561194e578261ffff16868261ffff16815181106118de577f4e487b7100000000000000000000000000000000000000000000000000000000600052603260045260246000fd5b602002602001015161ffff16111561193b57858161ffff168151811061192d577f4e487b7100000000000000000000000000000000000000000000000000000000600052603260045260246000fd5b602002602001015192508091505b8080611946906125b2565b91505061188c565b50809350505050919050565b6000600b60008473ffffffffffffffffffffffffffffffffffffffff1673ffffffffffffffffffffffffffffffffffffffff1681526020019081526020016000206000018054905014156119e3576040517f08c379a00000000000000000000000000000000000000000000000000000000081526004016119da9061233f565b60405180910390fd5b6000600b60008473ffffffffffffffffffffffffffffffffffffffff1673ffffffffffffffffffffffffffffffffffffffff16815260200190815260200160002060000180549050905060008160ff1683611a3e91906124db565b905060005b8260ff168160ff161015611bb8576000600b60008773ffffffffffffffffffffffffffffffffffffffff1673ffffffffffffffffffffffffffffffffffffffff1681526020019081526020016000206000018260ff1681548110611ad0577f4e487b7100000000000000000000000000000000000000000000000000000000600052603260045260246000fd5b9060005260206000200160009054906101000a900473ffffffffffffffffffffffffffffffffffffffff1673ffffffffffffffffffffffffffffffffffffffff1683604051611b1e90612256565b60006040518083038185875af1925050503d8060008114611b5b576040519150601f19603f3d011682016040523d82523d6000602084013e611b60565b606091505b5050905080611ba4576040517f08c379a0000000000000000000000000000000000000000000000000000000008152600401611b9b906122ff565b60405180910390fd5b508080611bb090612626565b915050611a43565b5060008473ffffffffffffffffffffffffffffffffffffffff168360ff1685611be19190612650565b604051611bed90612256565b60006040518083038185875af1925050503d8060008114611c2a576040519150601f19603f3d011682016040523d82523d6000602084013e611c2f565b606091505b5050905080611c73576040517f08c379a0000000000000000000000000000000000000000000000000000000008152600401611c6a906122ff565b60405180910390fd5b5050505050565b828054828255906000526020600020908101928215611cf3579160200282015b82811115611cf25782518260006101000a81548173ffffffffffffffffffffffffffffffffffffffff021916908373ffffffffffffffffffffffffffffffffffffffff16021790555091602001919060010190611c9a565b5b509050611d009190611e38565b5090565b82805482825590600052602060002090600f01601090048101928215611d9d5791602002820160005b83821115611d6d57835183826101000a81548161ffff021916908361ffff1602179055509260200192600201602081600101049283019260010302611d2d565b8015611d9b5782816101000a81549061ffff0219169055600201602081600101049283019260010302611d6d565b505b509050611daa9190611e38565b5090565b828054828255906000526020600020908101928215611e27579160200282015b82811115611e265782518260006101000a81548173ffffffffffffffffffffffffffffffffffffffff021916908373ffffffffffffffffffffffffffffffffffffffff16021790555091602001919060010190611dce565b5b509050611e349190611e38565b5090565b5b80821115611e51576000816000905550600101611e39565b5090565b6000611e68611e638461245a565b612435565b90508083825260208201905082856020860282011115611e8757600080fd5b60005b85811015611eb75781611e9d8882611ed6565b845260208401935060208301925050600181019050611e8a565b5050509392505050565b600081359050611ed081612893565b92915050565b600081359050611ee5816128aa565b92915050565b600082601f830112611efc57600080fd5b8135611f0c848260208601611e55565b91505092915050565b600081359050611f24816128c1565b92915050565b600081519050611f39816128c1565b92915050565b600060208284031215611f5157600080fd5b6000611f5f84828501611ec1565b91505092915050565b60008060408385031215611f7b57600080fd5b6000611f8985828601611ec1565b9250506020611f9a85828601611f15565b9150509250929050565b600060208284031215611fb657600080fd5b600082013567ffffffffffffffff811115611fd057600080fd5b611fdc84828501611eeb565b91505092915050565b600060208284031215611ff757600080fd5b600061200584828501611f15565b91505092915050565b60006020828403121561202057600080fd5b600061202e84828501611f2a565b91505092915050565b6000612043838361204f565b60208301905092915050565b6120588161250c565b82525050565b6120678161250c565b82525050565b600061207882612496565b61208281856124ae565b935061208d83612486565b8060005b838110156120be5781516120a58882612037565b97506120b0836124a1565b925050600181019050612091565b5085935050505092915050565b6120d481612530565b82525050565b60006120e7600b836124ca565b91506120f28261271f565b602082019050919050565b600061210a6015836124ca565b915061211582612748565b602082019050919050565b600061212d6014836124ca565b915061213882612771565b602082019050919050565b6000612150600e836124ca565b915061215b8261279a565b602082019050919050565b6000612173600b836124ca565b915061217e826127c3565b602082019050919050565b60006121966010836124ca565b91506121a1826127ec565b602082019050919050565b60006121b9601b836124ca565b91506121c482612815565b602082019050919050565b60006121dc6000836124bf565b91506121e78261283e565b600082019050919050565b60006121ff6013836124ca565b915061220a82612841565b602082019050919050565b60006122226012836124ca565b915061222d8261286a565b602082019050919050565b6122418161256a565b82525050565b61225081612574565b82525050565b6000612261826121cf565b9150819050919050565b6000602082019050612280600083018461205e565b92915050565b600060608201905061229b600083018661205e565b6122a8602083018561205e565b81810360408301526122ba818461206d565b9050949350505050565b60006020820190506122d960008301846120cb565b92915050565b600060208201905081810360008301526122f8816120da565b9050919050565b60006020820190508181036000830152612318816120fd565b9050919050565b6000602082019050818103600083015261233881612120565b9050919050565b6000602082019050818103600083015261235881612143565b9050919050565b6000602082019050818103600083015261237881612166565b9050919050565b6000602082019050818103600083015261239881612189565b9050919050565b600060208201905081810360008301526123b8816121ac565b9050919050565b600060208201905081810360008301526123d8816121f2565b9050919050565b600060208201905081810360008301526123f881612215565b9050919050565b60006020820190506124146000830184612238565b92915050565b600060208201905061242f6000830184612247565b92915050565b600061243f612450565b905061244b8282612581565b919050565b6000604051905090565b600067ffffffffffffffff821115612475576124746126df565b5b602082029050602081019050919050565b6000819050602082019050919050565b600081519050919050565b6000602082019050919050565b600082825260208201905092915050565b600081905092915050565b600082825260208201905092915050565b60006124e68261256a565b91506124f18361256a565b925082612501576125006126b0565b5b828204905092915050565b60006125178261254a565b9050919050565b60006125298261254a565b9050919050565b60008115159050919050565b600061ffff82169050919050565b600073ffffffffffffffffffffffffffffffffffffffff82169050919050565b6000819050919050565b600060ff82169050919050565b61258a8261270e565b810181811067ffffffffffffffff821117156125a9576125a86126df565b5b80604052505050565b60006125bd8261253c565b915061ffff8214156125d2576125d1612681565b5b600182019050919050565b60006125e88261256a565b91507fffffffffffffffffffffffffffffffffffffffffffffffffffffffffffffffff82141561261b5761261a612681565b5b600182019050919050565b600061263182612574565b915060ff82141561264557612644612681565b5b600182019050919050565b600061265b8261256a565b91506126668361256a565b925082612676576126756126b0565b5b828206905092915050565b7f4e487b7100000000000000000000000000000000000000000000000000000000600052601160045260246000fd5b7f4e487b7100000000000000000000000000000000000000000000000000000000600052601260045260246000fd5b7f4e487b7100000000000000000000000000000000000000000000000000000000600052604160045260246000fd5b6000601f19601f8301169050919050565b7f656d707479206172726179000000000000000000000000000000000000000000600082015250565b7f6d6f6e6579206e6f74207472616e736665727265640000000000000000000000600082015250565b7f506572736f6e20616c726561647920766f746564000000000000000000000000600082015250565b7f5465616d206e6f7420666f756e64000000000000000000000000000000000000600082015250565b7f54696d65206e6f74207570000000000000000000000000000000000000000000600082015250565b7f696e76616c696420747261636b20494400000000000000000000000000000000600082015250565b7f4e6f74207468652072696768742074696d6520696e74657276616c0000000000600082015250565b50565b7f4e6f7420612076616c6964207465616d20696400000000000000000000000000600082015250565b7f7465616d2073697a652065786365656465640000000000000000000000000000600082015250565b61289c8161250c565b81146128a757600080fd5b50565b6128b38161251e565b81146128be57600080fd5b50565b6128ca8161256a565b81146128d557600080fd5b5056fea2646970667358221220d00a044667812a22b351db44d8c8910e85d0ebc98e0e3325c0f355c9fd7a553164736f6c63430008040033",
  "linkReferences": {},
  "deployedLinkReferences": {}
}